:100000000C942A000C9447000C9447000C94470071
:100010000C9447000C9447000C9447000C94210763
:100020000C9447000C94EE060C9447000C94470087
:100030000C9447000C9447000C9447000C94470024
:100040000C9447000C9447000C9447000C94470014
:100050000C94470011241FBECFE5D8E0DEBFCDBF12
:1000600010E0A0E6B0E0E2EAFBE202C005900D92EB
:10007000AC3FB107D9F711E0ACEFB0E001C01D9281
:10008000A530B107E1F70E94FC140C94CF150C9435
:100090000000EF92FF920F931F937B018C0120E0F1
:1000A00030E040E05FE40E94490388238CF0C801FF
:1000B000B70120E030E040E05FE40E94C1010E940F
:1000C000A9039B01AC01205030404040504806C07D
:1000D000C801B7010E94A9039B01AC01B901CA0183
:1000E0001F910F91FF90EF900895A0E0B0E0EBE733
:1000F000F0E00C945315DC012B01FA019C91923035
:1001000008F439C1EB018881823008F433C194309E
:1001100069F4843009F02FC111969C91119789815F
:10012000981709F428C1A2EFB0E025C1843009F482
:1001300021C18230A9F4923009F01DC19A01AD01AC
:1001400088E0EA010990AE01E90109929E0181501F
:10015000C1F7E201898111969C918923818308C1AD
:10016000923009F407C112962D903C901397EB0141
:100170008A819B811496AD90BD90CD90DC901797AD
:10018000EC80FD800E811F819101281B390BB90184
:1001900037FF04C066277727621B730B6032710537
:1001A0000CF061C0121613066CF537014801062EDB
:1001B00004C096948794779467940A94D2F721E0C8
:1001C00030E040E050E004C0220F331F441F551FB1
:1001D0006A95D2F721503040404050402E213F21B7
:1001E00040235123211531054105510521F021E01E
:1001F00030E040E050E079018A01E628F72808293C
:1002000019293CC0232BD1F1260E371E350146019A
:10021000062E04C096948794779467940A94D2F734
:1002200021E030E040E050E004C0220F331F441FC3
:10023000551F6A95D2F721503040404050402A2146
:100240003B214C215D21211531054105510521F04E
:1002500021E030E040E050E059016A01A628B728CB
:10026000C828D9280BC0821593052CF01C01AA249C
:10027000BB24650103C0EE24FF24870111969C91E5
:10028000D20111968C91981709F445C0992339F041
:10029000A80197012A193B094C095D0906C0A6016E
:1002A00095012E193F09400B510B57FD08C01182D3
:1002B0003382228224833583468357831DC081E0A5
:1002C00081833382228288279927DC01821B930B4A
:1002D000A40BB50B84839583A683B7830DC0220F2F
:1002E000331F441F551F24833583468357838281E0
:1002F000938101979383828324813581468157813D
:10030000DA01C9010197A109B1098F5F9F4FAF4F72
:10031000BF4328F30BC0918333822282EA0CFB1C7B
:100320000C1D1D1DE482F5820683178383E0808304
:10033000248135814681578157FF1AC0C901AA27F8
:1003400097FDA095BA2F81709070A070B0705695EF
:10035000479537952795822B932BA42BB52B848318
:100360009583A683B7838281938101969383828349
:10037000DF0101C0D201CD01CDB7DEB7E2E10C94BF
:100380006F15A0E2B0E0E7ECF1E00C945F15698333
:100390007A838B839C832D833E834F835887E9E048
:1003A000EE2EF12CEC0EFD1ECE010196B7010E943F
:1003B000D2048E010F5E1F4FCE010596B8010E9438
:1003C000D2048A8991E089278A8BC701B801AE01DE
:1003D000475E5F4F0E9475000E94FD03A096E6E015
:1003E0000C947B15A0E2B0E0E8EFF1E00C945F150F
:1003F00069837A838B839C832D833E834F835887C5
:10040000F9E0EF2EF12CEC0EFD1ECE010196B701A6
:100410000E94D2048E010F5E1F4FCE010596B801D7
:100420000E94D204C701B801AE01475E5F4F0E942F
:1004300075000E94FD03A096E6E00C947B15A0E2F7
:10044000B0E0E5E2F2E00C94531569837A838B8384
:100450009C832D833E834F835887CE010196BE0136
:10046000675F7F4F0E94D204CE010596BE016F5E8A
:100470007F4F0E94D2049985923088F0898982301A
:10048000C8F0943019F4823051F404C0843029F457
:10049000923081F482EF90E0C6C0923049F420E0BF
:1004A0009A858A89981321E02A87CE010996BBC0D4
:1004B000823049F420E09A858A89981321E02A8BBA
:1004C000CE014196B0C02D843E844F8458886D88FB
:1004D0007E888F88988CEE24FF248701AA24BB2471
:1004E000650140E050E060E070E0E0E0F0E0C10174
:1004F00081709070892BE9F0E60CF71C081D191D1E
:100500009A01AB012A0D3B1D4C1D5D1D80E090E062
:10051000A0E0B0E0E614F7040805190520F481E036
:1005200090E0A0E0B0E0BA01A901480F591F6A1F8E
:100530007B1FAA0CBB1CCC1CDD1C97FE08C081E0F5
:1005400090E0A0E0B0E0A82AB92ACA2ADB2A3196B6
:10055000E032F10549F0660C771C881C991C569412
:10056000479437942794C3CFFA85EA892B893C892D
:100570008B859C85280F391F2E5F3F4F17C0CA01FE
:1005800081709070892B61F016950795F794E79428
:1005900080E090E0A0E0B0E8E82AF92A0A2B1B2BC3
:1005A00076956795579547952F5F3F4F77FDE7CF36
:1005B0000CC0440F551F661F771F17FD4160EE0CDE
:1005C000FF1C001F111F21503040403090E05907A0
:1005D00090E0690790E4790760F32B8F3C8FDB0193
:1005E000CA018F779070A070B07080349105A1051A
:1005F000B10561F447FD0AC0E114F10401051105DC
:1006000029F0405C5F4F6F4F7F4F40781A8EFE1786
:1006100011F081E08A8F4D8F5E8F6F8F78A383E01A
:10062000898FCE0149960E94FD03A096E2E10C94C9
:100630006F15A8E1B0E0EFE1F3E00C945F1569837A
:100640007A838B839C832D833E834F83588789E0F5
:10065000E82EF12CEC0EFD1ECE010196B7010E9492
:10066000D2048E010F5E1F4FCE010596B8010E9485
:10067000D2048985823040F08989823028F0C70110
:10068000B8010E944A0501C08FEF6896E6E00C941D
:100690007B15A8E1B0E0EFE4F3E00C945F1569830B
:1006A0007A838B839C832D833E834F83588789E095
:1006B000E82EF12CEC0EFD1ECE010196B7010E9432
:1006C000D2048E010F5E1F4FCE010596B8010E9425
:1006D000D2048985823040F08989823028F0C701B0
:1006E000B8010E944A0501C08FEF6896E6E00C94BD
:1006F0007B15A8E1B0E0EFE7F3E00C945F156983A8
:100700007A838B839C832D833E834F83588789E034
:10071000E82EF12CEC0EFD1ECE010196B7010E94D1
:10072000D2048E010F5E1F4FCE010596B8010E94C4
:10073000D2048985823040F08989823028F0C7014F
:10074000B8010E944A0501C081E06896E6E00C9479
:100750007B15ACE0B0E0EFEAF3E00C94631569833D
:100760007A838B839C83CE010196BE016B5F7F4FA2
:100770000E94D2048D81823061F1823050F1843048
:1007800021F48E81882351F12EC02F81388537FDC9
:1007900020C06E812F3131051CF06623F9F023C093
:1007A0008EE190E0821B930B29853A854B855C8511
:1007B00004C056954795379527958A95D2F76623B5
:1007C000B1F050954095309521953F4F4F4F5F4F79
:1007D0000EC020E030E040E050E009C02FEF3FEFD6
:1007E0004FEF5FE704C020E030E040E050E8B9019F
:1007F000CA012C96E2E00C947F15DF92EF92FF92F3
:100800000F931F93FC01E480F58006811781D1804E
:100810008081823048F480E090E0A0E1B0E0E82AF6
:10082000F92A0A2B1B2BA5C0843009F49FC0823003
:1008300021F4EE24FF24870105C0E114F104010531
:10084000110519F4E0E0F0E096C0628173819FEF3A
:10085000623879070CF05BC022E83FEF261B370BAC
:100860002A3131052CF020E030E040E050E02AC091
:10087000B801A701022E04C0769567955795479554
:100880000A94D2F781E090E0A0E0B0E004C0880FC5
:10089000991FAA1FBB1F2A95D2F70197A109B10979
:1008A0008E219F21A023B1230097A105B10521F03E
:1008B00081E090E0A0E0B0E09A01AB01282B392B59
:1008C0004A2B5B2BDA01C9018F779070A070B07052
:1008D00080349105A105B10539F427FF09C0205CDA
:1008E0003F4F4F4F5F4F04C0215C3F4F4F4F5F4F13
:1008F000E0E0F0E02030A0E03A07A0E04A07A0E402
:100900005A0710F0E1E0F0E079018A0127C0603871
:10091000710564F5FB01E158FF4FD801C7018F77DE
:100920009070A070B07080349105A105B10539F4C4
:10093000E7FE0DC080E490E0A0E0B0E004C08FE3EB
:1009400090E0A0E0B0E0E80EF91E0A1F1B1F17FFA1
:1009500005C016950795F794E794319687E01695AC
:100960000795F794E7948A95D1F705C0EE24FF2404
:100970008701EFEFF0E06E2F679566276795902F60
:100980009F77D794DD24D7948E2F8695492F462BB9
:10099000582F5D29B701CA011F910F91FF90EF9069
:1009A000DF900895FC01DB01408151812281622F9B
:1009B0006F7770E0221F2227221F9381892F880FD3
:1009C000822B282F30E0991F9927991F11969C930D
:1009D000119721153105A9F54115510561057105DD
:1009E00011F482E037C082E89FEF13969C938E93B8
:1009F00012979A01AB0167E0220F331F441F551F66
:100A00006A95D1F783E08C930DC0220F331F441FEA
:100A1000551F12968D919C911397019713969C9355
:100A20008E931297203080E0380780E0480780E4FA
:100A3000580758F314962D933D934D935C93179755
:100A400008952F3F310579F4411551056105710570
:100A500019F484E08C93089564FF03C081E08C93C3
:100A600012C01C9210C02F57304013963C932E9307
:100A7000129783E08C9387E0440F551F661F771F02
:100A80008A95D1F7706414964D935D936D937C9322
:100A9000179708951F93DC01FB019C91923008F495
:100AA00047C08081823008F443C0943051F41196DD
:100AB0001C91843099F58181682F70E0611B710968
:100AC0003FC0843021F0923031F48230B9F181811D
:100AD000882389F12DC011961C9111978230F1F075
:100AE00081811817D9F412962D913C911397828128
:100AF00093818217930794F028173907BCF0149656
:100B00008D919D910D90BC91A02D248135814681C0
:100B10005781281739074A075B0718F4112341F05A
:100B20000AC082179307A407B50740F4112319F0F0
:100B300061E070E005C06FEF7FEF02C060E070E041
:100B4000CB011F910895DF93CF9300D000D000D048
:100B5000CDB7DEB79C838B831A821982EBE2F0E07B
:100B600082E08083EAE2F0E088E18083E0E4F0E084
:100B700080E88083A0E4B0E0E0E4F0E08081382FFA
:100B8000EB81FC818281882F90E0880F991F880F6C
:100B9000991F880F991F282FEB81FC818181882F55
:100BA00090E082959295907F9827807F9827822B5E
:100BB000832B8C93EB81FC818081282F30E03E8356
:100BC0002D838D819E818730910519F12D813E8184
:100BD000283031055CF48D819E8185309105B9F115
:100BE0002D813E812630310561F031C08D819E819D
:100BF00088309105B1F02D813E8129303105C9F051
:100C000026C0A0E4B0E0E0E4F0E0808182608C9354
:100C10001EC0A0E4B0E0E0E4F0E0808184608C934A
:100C200016C0A0E4B0E0E0E4F0E0808186608C9340
:100C30000EC0A0E4B0E0E0E4F0E0808186608C9338
:100C4000AAE2B0E0EAE2F0E0808184608C93EB817C
:100C5000FC8183819481A581B681880F991FAA1F89
:100C6000BB1F880F991FAA1FBB1F880F991FAA1FA0
:100C7000BB1F9C01AD0180E092E1AAE7B0E0BC019E
:100C8000CD010E943115DA01C90101979A83898348
:100C9000E0E4F0E089819A81892F99278083E9E255
:100CA000F0E08981808326960FB6F894DEBF0FBEF0
:100CB000CDBFCF91DF910895DF93CF930F92CDB742
:100CC000DEB78983EBE2F0E08081882F90E08072CC
:100CD00090700097B9F3ECE2F0E0898180830F9087
:100CE000CF91DF910895DF93CF93CDB7DEB7EBE2DD
:100CF000F0E080818823DCF7ECE2F0E08081CF91A6
:100D0000DF910895DF93CF9300D00F92CDB7DEB778
:100D10009B838A8319820EC08981282F30E08A81C3
:100D20009B81FC01E20FF31F80810E945C06898198
:100D30008F5F89838981282F30E08A819B81FC0124
:100D4000E20FF31F8081882339F70F900F900F90E7
:100D5000CF91DF9108950F931F93DF93CF9300D02E
:100D60000F92CDB7DEB79B838A8319828981282FA2
:100D700030E08A819B818C01020F131F0E94730651
:100D8000F80180830FC089818F5F89838981282F33
:100D900030E08A819B818C01020F131F0E94730631
:100DA000F80180838981282F30E08A819B81FC01B2
:100DB000E20FF31F8081833231F78981282F30E0E1
:100DC0008A819B81FC01E20FF31F10820F900F902C
:100DD0000F90CF91DF911F910F9108951F920F9265
:100DE0000FB60F9211242F933F934F935F936F93FE
:100DF0007F938F939F93AF93BF93EF93FF93DF9373
:100E0000CF93CDB7DEB78091FC009091FD000097A5
:100E100029F0E091FC00F091FD000995CF91DF9160
:100E2000FF91EF91BF91AF919F918F917F916F91C2
:100E30005F914F913F912F910F900FBE0F901F9098
:100E400018951F920F920FB60F9211242F933F9374
:100E50004F935F936F937F938F939F93AF93BF93C2
:100E6000EF93FF93DF93CF93CDB7DEB78091FC0074
:100E70009091FD00009729F0E091FC00F091FD00B9
:100E80000995CF91DF91FF91EF91BF91AF919F9124
:100E90008F917F916F915F914F913F912F910F9023
:100EA0000FBE0F901F901895DF93CF9300D0CDB752
:100EB000DEB79A838983ACE4B0E0E981FA8180816E
:100EC000918111969C938E93EFE4F0E088E080830B
:100ED000E981FA818581882391F4A9E5B0E0E9E50B
:100EE000F0E0808184608C93AEE4B0E0EEE4F0E06A
:100EF0009081E981FA818481892B8C9317C0AAE4BF
:100F0000B0E0E981FA818281938111969C938E935E
:100F1000A9E5B0E0E9E5F0E0808180618C93AEE482
:100F2000B0E0E981FA81848188608C930F900F9002
:100F3000CF91DF910895DF93CF93CDB7DEB7EFE484
:100F4000F0E01082EEE4F0E01082ECE4F0E01182D8
:100F50001082EAE4F0E011821082E9E5F0E010820C
:100F6000CF91DF910895DF93CF9300D0CDB7DEB757
:100F70009A83898389819A819093FD008093FC00F4
:100F80000F900F90CF91DF910895DF93CF93CDB75E
:100F9000DEB72E970FB6F894DEBF0FBECDBF83E04D
:100FA00066E041E00E94960E83E067E041E00E9427
:100FB000960E80E090E0A0EAB1E48B879C87AD8735
:100FC000BE876B857C858D859E8520E030E04AEF6D
:100FD00054E40E941F02DC01CB018F839887A9870C
:100FE000BA876F81788589859A8520E030E040E86E
:100FF0005FE30E94790388232CF481E090E09E83D4
:101000008D833FC06F81788589859A8520E03FEF89
:101010004FE757E40E94190318164CF56B857C8541
:101020008D859E8520E030E040E251E40E941F0261
:10103000DC01CB01BC01CD010E944900DC01CB01E8
:101040009E838D830FC088EC90E09C838B838B8183
:101050009C810197F1F79C838B838D819E81019701
:101060009E838D838D819E81009769F714C06F8167
:10107000788589859A850E944900DC01CB019E8391
:101080008D838D819E819A83898389819A8101973D
:10109000F1F79A83898382E06FEF0E94071188E35A
:1010A0000E9461088CE00E94610881E00E94610852
:1010B0002E960FB6F894DEBF0FBECDBFCF91DF9155
:1010C0000895DF93CF93CDB7DEB7E9970FB6F894C5
:1010D000DEBF0FBECDBF89AF83E066E040E00E9477
:1010E000810F80E090E0A0E8BFE38DAB9EABAFAB9B
:1010F000B8AF6DA97EA98FA998AD20E030E04AEF86
:1011000054E40E941F02DC01CB0189AB9AABABAB6C
:10111000BCAB69A97AA98BA99CA920E030E040E882
:101120005FE30E94790388232CF481E090E098AB80
:101130008FA73FC069A97AA98BA99CA920E03FEF9E
:101140004FE757E40E94190318164CF56DA97EA9C4
:101150008FA998AD20E030E040E251E40E941F02E8
:10116000DC01CB01BC01CD010E944900DC01CB01B7
:1011700098AB8FA70FC088EC90E09EA78DA78DA598
:101180009EA50197F1F79EA78DA78FA598A9019716
:1011900098AB8FA78FA598A9009769F714C069A984
:1011A0007AA98BA99CA90E944900DC01CB0198ABCC
:1011B0008FA78FA598A99CA78BA78BA59CA5019706
:1011C000F1F79CA78BA783E067E041E00E94810FC5
:1011D00080E090E0A0E8BFE38FA398A7A9A7BAA7F3
:1011E0006FA178A589A59AA520E030E04AEF54E4E4
:1011F0000E941F02DC01CB018BA39CA3ADA3BEA365
:101200006BA17CA18DA19EA120E030E040E85FE3CE
:101210000E94790388232CF481E090E09AA389A3AB
:101220003FC06BA17CA18DA19EA120E03FEF4FE7C5
:1012300057E40E94190318164CF56FA178A589A5EB
:101240009AA520E030E040E251E40E941F02DC0158
:10125000CB01BC01CD010E944900DC01CB019AA366
:1012600089A30FC088EC90E098A38F8F8F8D98A1F1
:101270000197F1F798A38F8F89A19AA101979AA35B
:1012800089A389A19AA1009769F714C06BA17CA1D9
:101290008DA19EA10E944900DC01CB019AA389A3E4
:1012A00089A19AA19E8F8D8F8D8D9E8D0197F1F7CB
:1012B0009E8F8D8F82E069AD0E944B1180E090E09F
:1012C000A0E8BFE3898F9A8FAB8FBC8F698D7A8D31
:1012D0008B8D9C8D20E030E04AEF54E40E941F0289
:1012E000DC01CB018D8B9E8BAF8BB88F6D897E8996
:1012F0008F89988D20E030E040E85FE30E94790319
:1013000088232CF481E090E09C8B8B8B3FC06D890F
:101310007E898F89988D20E03FEF4FE757E40E9448
:10132000190318164CF5698D7A8D8B8D9C8D20E0F4
:1013300030E040E251E40E941F02DC01CB01BC011D
:10134000CD010E944900DC01CB019C8B8B8B0FC02F
:1013500088EC90E09A8B898B89899A890197F1F7BB
:101360009A8B898B8B899C8901979C8B8B8B8B8922
:101370009C89009769F714C06D897E898F89988D43
:101380000E944900DC01CB019C8B8B8B8B899C8953
:10139000988B8F878F8598890197F1F7988B8F8726
:1013A00083E067E040E00E94810F80E090E0A0E8E9
:1013B000BFE38B879C87AD87BE876B857C858D85DA
:1013C0009E8520E030E04AEF54E40E941F02DC01D9
:1013D000CB018F839887A987BA876F8178858985A4
:1013E0009A8520E030E040E85FE30E94790388239B
:1013F0002CF481E090E09E838D833FC06F817885DF
:1014000089859A8520E03FEF4FE757E40E94190352
:1014100018164CF56B857C858D859E8520E030E027
:1014200040E251E40E941F02DC01CB01BC01CD016E
:101430000E944900DC01CB019E838D830FC088ECA4
:1014400090E09C838B838B819C810197F1F79C8337
:101450008B838D819E8101979E838D838D819E815B
:10146000009769F714C06F81788589859A850E94F5
:101470004900DC01CB019E838D838D819E819A83FF
:10148000898389819A810197F1F79A838983E99603
:101490000FB6F894DEBF0FBECDBFCF91DF91089598
:1014A000DF93CF93CDB7DEB7E9970FB6F894DEBFE1
:1014B0000FBECDBF89AF83E066E041E00E94810F9F
:1014C00080E090E0A0E8BFE38DAB9EABAFABB8AFE0
:1014D0006DA97EA98FA998AD20E030E04AEF54E4D1
:1014E0000E941F02DC01CB0189AB9AABABABBCAB5A
:1014F00069A97AA98BA99CA920E030E040E85FE3C4
:101500000E94790388232CF481E090E098AB8FA7A8
:101510003FC069A97AA98BA99CA920E03FEF4FE7BA
:1015200057E40E94190318164CF56DA97EA98FA9DE
:1015300098AD20E030E040E251E40E941F02DC015F
:10154000CB01BC01CD010E944900DC01CB0198AB6D
:101550008FA70FC088EC90E09EA78DA78DA59EA5B4
:101560000197F1F79EA78DA78FA598A9019798AB32
:101570008FA78FA598A9009769F714C069A97AA9C0
:101580008BA99CA90E944900DC01CB0198AB8FA7D5
:101590008FA598A99CA78BA78BA59CA50197F1F770
:1015A0009CA78BA783E067E041E00E94810F80E069
:1015B00090E0A0E8BFE38FA398A7A9A7BAA76FA15F
:1015C00078A589A59AA520E030E04AEF54E40E946E
:1015D0001F02DC01CB018BA39CA3ADA3BEA36BA117
:1015E0007CA18DA19EA120E030E040E85FE30E9455
:1015F000790388232CF481E090E09AA389A33FC06B
:101600006BA17CA18DA19EA120E03FEF4FE757E4A5
:101610000E94190318164CF56FA178A589A59AA503
:1016200020E030E040E251E40E941F02DC01CB01E7
:10163000BC01CD010E944900DC01CB019AA389A322
:101640000FC088EC90E098A38F8F8F8D98A10197A1
:10165000F1F798A38F8F89A19AA101979AA389A3E3
:1016600089A19AA1009769F714C06BA17CA18DA1F3
:101670009EA10E944900DC01CB019AA389A389A104
:101680009AA19E8F8D8F8D8D9E8D0197F1F79E8FE4
:101690008D8F82E069AD0E944B1180E090E0A0E860
:1016A000BFE3898F9A8FAB8FBC8F698D7A8D8B8DBD
:1016B0009C8D20E030E04AEF54E40E941F02DC01E0
:1016C000CB018D8B9E8BAF8BB88F6D897E898F8977
:1016D000988D20E030E040E85FE30E9479038823A2
:1016E0002CF481E090E09C8B8B8B3FC06D897E89D0
:1016F0008F89988D20E03FEF4FE757E40E94190350
:1017000018164CF5698D7A8D8B8D9C8D20E030E01C
:1017100040E251E40E941F02DC01CB01BC01CD017B
:101720000E944900DC01CB019C8B8B8B0FC088ECA5
:1017300090E09A8B898B89899A890197F1F79A8B26
:10174000898B8B899C8901979C8B8B8B8B899C893E
:10175000009769F714C06D897E898F89988D0E94E2
:101760004900DC01CB019C8B8B8B8B899C89988BEE
:101770008F878F8598890197F1F7988B8F8783E002
:1017800067E040E00E94810F80E090E0A0E8BFE3C6
:101790008B879C87AD87BE876B857C858D859E8575
:1017A00020E030E04AEF54E40E941F02DC01CB014C
:1017B0008F839887A987BA876F81788589859A856D
:1017C00020E030E040E85FE30E94790388232CF4B6
:1017D00081E090E09E838D833FC06F81788589850D
:1017E0009A8520E03FEF4FE757E40E94190318164F
:1017F0004CF56B857C858D859E8520E030E040E250
:1018000051E40E941F02DC01CB01BC01CD010E940A
:101810004900DC01CB019E838D830FC088EC90E0F2
:101820009C838B838B819C810197F1F79C838B83B5
:101830008D819E8101979E838D838D819E810097EE
:1018400069F714C06F81788589859A850E9449005F
:10185000DC01CB019E838D838D819E819A83898358
:1018600089819A810197F1F79A838983E9960FB666
:10187000F894DEBF0FBECDBFCF91DF910895DF9307
:10188000CF9300D00F92CDB7DEB79B838A831982A6
:101890000EC08981282F30E08A819B81FC01E20FF4
:1018A000F31F80810E94500A89818F5F898389811B
:1018B000282F30E08A819B81FC01E20FF31F808199
:1018C000882339F70F900F900F90CF91DF910895F3
:1018D000DF93CF9300D000D00F92CDB7DEB78A83CD
:1018E0006B838A81282F30E03D832C838C819D81FE
:1018F00081309105C1F02C813D81223031052CF4DD
:101900008C819D81009761F019C02C813D8122302E
:10191000310569F08C819D818330910561F00EC0A5
:101920008B8189830BC08B81805C898307C08B810D
:10193000805F898303C08B81805B89838981806814
:101940000E9461080F900F900F900F900F90CF9111
:10195000DF910895DF93CF9300D000D0CDB7DEB7ED
:1019600089836A835C834B8389816A810E94680CC6
:101970008B819C810E943F0C0F900F900F900F90D5
:10198000CF91DF910895DF93CF93CDB7DEB7629704
:101990000FB6F894DEBF0FBECDBF9A8B898B8989B5
:1019A0009A899E012F5F3F4FB9014AE050E00E94A3
:1019B0008A15CE0101960E943F0C62960FB6F894EC
:1019C000DEBF0FBECDBFCF91DF910895DF93CF93E0
:1019D000CDB7DEB781E00E946108CF91DF91089515
:1019E000DF93CF93CDB7DEB760970FB6F894DEBF25
:1019F0000FBECDBF1F860DC081E06F8540E00E9405
:101A0000960E81E06F8541E00E94810F8F858F5F88
:101A10008F878F85843080F3188A13C08889982F28
:101A20009C5F81E0692F40E00E94960E8889982F84
:101A30009C5F81E0692F41E00E94810F88898F5F60
:101A4000888B8889843050F31F86C4C081E06F85FD
:101A500041E00E94960E81E06F8540E00E94810F78
:101A6000188AA7C08889982F9C5F81E0692F0E94FF
:101A70006C10882309F09AC080E090E0A0EAB0E4FE
:101A80008B879C87AD87BE876B857C858D859E8582
:101A900020E030E04AEF54E40E941F02DC01CB0159
:101AA0008F839887A987BA876F81788589859A857A
:101AB00020E030E040E85FE30E94790388232CF4C3
:101AC00081E090E09E838D833FC06F81788589851A
:101AD0009A8520E03FEF4FE757E40E94190318165C
:101AE0004CF56B857C858D859E8520E030E040E25D
:101AF00051E40E941F02DC01CB01BC01CD010E9418
:101B00004900DC01CB019E838D830FC088EC90E0FF
:101B10009C838B838B819C810197F1F79C838B83C2
:101B20008D819E8101979E838D838D819E810097FB
:101B300069F714C06F81788589859A850E9449006C
:101B4000DC01CB019E838D838D819E819A83898365
:101B500089819A810197F1F79A8389838889982FDF
:101B60009C5F81E0692F0E946C108823F9F48889BA
:101B7000982F9C5F81E0692F0E946C108823B9F335
:101B80008F85882F90E0880F991F880F991F982FB5
:101B90008889890F8F5F0E94EF0D60960FB6F894C9
:101BA000DEBF0FBECDBFCF91DF91089588898F5FD3
:101BB000888B8889843008F455CF81E06F8540E0B8
:101BC0000E94960E81E06F8541E00E94810F8F8513
:101BD0008F5F8F878F85843008F438CF35CFDF93C0
:101BE000CF9300D000D0CDB7DEB78A8319828A8127
:101BF000282F30E03C832B838B819C81883091059A
:101C000009F470C02B813C81293031055CF58B8152
:101C10009C818430910509F459C02B813C81253089
:101C200031059CF48B819C818230910509F448C078
:101C30002B813C81233031050CF045C08B819C8188
:101C40008130910509F439C067C02B813C81263071
:101C5000310509F441C08B819C81873091050CF0DE
:101C60003EC037C02B813C812C30310509F446C081
:101C70008B819C818D3091055CF42B813C812A30D5
:101C80003105B1F18B819C818B309105A4F52DC07C
:101C90002B813C812E303105B9F18B819C818E30B6
:101CA00091057CF12B813C812F30310579F18B81BD
:101CB0009C818031910569F12FC087E089832EC016
:101CC00088E089832BC089E0898328C085E28983E5
:101CD00025C084E0898322C085E089831FC086E017
:101CE00089831CC08AE2898319C081E0898316C078
:101CF00082E0898313C083E0898310C08DE28983E9
:101D00000DC08DE089830AC0198208C08DE38983E4
:101D100005C08BE2898302C08A81898389810F9003
:101D20000F900F900F90CF91DF910895DF93CF9395
:101D300000D000D00F92CDB7DEB789836A834B8382
:101D40008A81883008F0D5C08981843008F0D1C0FC
:101D50008981282F30E03D832C838C819D818130C7
:101D6000910509F443C02C813D81223031052CF4CA
:101D70008C819D81009771F0BCC02C813D81223007
:101D8000310509F45FC08C819D818330910509F490
:101D900085C0AFC08B818130A1F4AAE3B0E0EAE353
:101DA000F0E08081482F8A81282F30E081E090E0A8
:101DB000022E02C0880F991F0A94E2F7842B8C939D
:101DC00098C0AAE3B0E0EAE3F0E08081482F8A817E
:101DD000282F30E081E090E0022E02C0880F991F8A
:101DE0000A94E2F7809584238C9383C08B818130A1
:101DF000A1F4A7E3B0E0E7E3F0E08081482F8A8117
:101E0000282F30E081E090E0022E02C0880F991F59
:101E10000A94E2F7842B8C936CC0A7E3B0E0E7E36D
:101E2000F0E08081482F8A81282F30E081E090E027
:101E3000022E02C0880F991F0A94E2F7809584232E
:101E40008C9357C08B818130A1F4A4E3B0E0E4E32C
:101E5000F0E08081482F8A81282F30E081E090E0F7
:101E6000022E02C0880F991F0A94E2F7842B8C93EC
:101E700040C0A4E3B0E0E4E3F0E08081482F8A8131
:101E8000282F30E081E090E0022E02C0880F991FD9
:101E90000A94E2F7809584238C932BC08B81813048
:101EA000A1F4A1E3B0E0E1E3F0E08081482F8A8172
:101EB000282F30E081E090E0022E02C0880F991FA9
:101EC0000A94E2F7842B8C9314C0A1E3B0E0E1E321
:101ED000F0E08081482F8A81282F30E081E090E077
:101EE000022E02C0880F991F0A94E2F7809584237E
:101EF0008C930F900F900F900F900F90CF91DF91D8
:101F00000895DF93CF9300D000D00F92CDB7DEB706
:101F100089836A834B838A81883008F0D5C08981A0
:101F2000843008F0D1C08981282F30E03D832C8394
:101F30008C819D818130910509F443C02C813D81C4
:101F4000223031052CF48C819D81009771F0BCC04A
:101F50002C813D812230310509F45FC08C819D8147
:101F60008330910509F485C0AFC08B818130A1F425
:101F7000ABE3B0E0EBE3F0E08081482F8A81282FCB
:101F800030E081E090E0022E02C0880F991F0A9491
:101F9000E2F7842B8C9398C0ABE3B0E0EBE3F0E086
:101FA0008081482F8A81282F30E081E090E0022E46
:101FB00002C0880F991F0A94E2F7809584238C93BE
:101FC00083C08B818130A1F4A8E3B0E0E8E3F0E0C6
:101FD0008081482F8A81282F30E081E090E0022E16
:101FE00002C0880F991F0A94E2F7842B8C936CC06F
:101FF000A8E3B0E0E8E3F0E08081482F8A81282F51
:1020000030E081E090E0022E02C0880F991F0A9410
:10201000E2F7809584238C9357C08B818130A1F4A3
:10202000A5E3B0E0E5E3F0E08081482F8A81282F26
:1020300030E081E090E0022E02C0880F991F0A94E0
:10204000E2F7842B8C9340C0A5E3B0E0E5E3F0E039
:102050008081482F8A81282F30E081E090E0022E95
:1020600002C0880F991F0A94E2F7809584238C930D
:102070002BC08B818130A1F4A2E3B0E0E2E3F0E079
:102080008081482F8A81282F30E081E090E0022E65
:1020900002C0880F991F0A94E2F7842B8C9314C016
:1020A000A2E3B0E0E2E3F0E08081482F8A81282FAC
:1020B00030E081E090E0022E02C0880F991F0A9460
:1020C000E2F7809584238C930F900F900F900F90E0
:1020D0000F90CF91DF910895DF93CF9300D000D080
:1020E0000F92CDB7DEB78A836B8319828B818830DC
:1020F00008F084C08A81843008F080C08A81282F4B
:1021000030E03D832C834C815D814130510579F174
:102110008C819D818230910534F42C813D81211583
:10212000310569F06BC04C815D8142305105B9F1D8
:102130008C819D818330910509F449C05FC0E9E33A
:10214000F0E08081282F30E08B81882F90E0A9017A
:1021500002C0559547958A95E2F7CA018170907043
:10216000882319F081E0898349C0198247C0E6E3DA
:10217000F0E08081282F30E08B81882F90E0A9014A
:1021800002C0559547958A95E2F7CA018170907013
:10219000882319F081E0898331C019822FC0E3E3DD
:1021A000F0E08081282F30E08B81882F90E0A9011A
:1021B00002C0559547958A95E2F7CA0181709070E3
:1021C000882319F081E0898319C0198217C0E0E3E0
:1021D000F0E08081282F30E08B81882F90E0A901EA
:1021E00002C0559547958A95E2F7CA0181709070B3
:1021F000882319F081E0898301C0198289810F90B9
:102200000F900F900F900F90CF91DF910895DF9373
:10221000CF9300D000D0CDB7DEB789836A838981A0
:10222000843090F58981282F30E03C832B838B818B
:102230009C8181309105D1F02B813C812230310588
:102240002CF48B819C81009761F01EC02B813C8116
:102250002230310581F08B819C818330910581F0A2
:1022600013C0EAE3F0E08A8180830EC0E7E3F0E088
:102270008A81808309C0E4E3F0E08A81808304C01E
:10228000E1E3F0E08A8180830F900F900F900F9030
:10229000CF91DF910895DF93CF9300D000D0CDB7D9
:1022A000DEB789836A838981843090F58981282FFC
:1022B00030E03C832B838B819C8181309105D1F070
:1022C0002B813C81223031052CF48B819C8100973D
:1022D00061F01EC02B813C812230310581F08B8161
:1022E0009C818330910581F013C0EBE3F0E08A819B
:1022F00080830EC0E8E3F0E08A81808309C0E5E3D3
:10230000F0E08A81808304C0E2E3F0E08A81808388
:102310000F900F900F900F90CF91DF910895DF9362
:10232000CF9300D000D0CDB7DEB78A8319828A81DF
:10233000843090F58A81282F30E03C832B838B8179
:102340009C8181309105D1F02B813C812230310577
:102350002CF48B819C81009761F01EC02B813C8105
:102360002230310581F08B819C818330910581F091
:1023700013C0E9E3F0E0808189830EC0E6E3F0E07A
:102380008081898309C0E3E3F0E08081898304C010
:10239000E0E3F0E08081898389810F900F900F90B6
:1023A0000F90CF91DF910895DF93CF93CDB7DEB734
:1023B0008091FE008F5F8093FE008091FE008F3041
:1023C00039F40E94E60C80E690E00E943F0C1BC0AE
:1023D0008091FE00823139F40E94E60C81E790E0A2
:1023E0000E943F0C10C08091FE00813261F40E9477
:1023F0009B071092FE000E94E60C81E890E00E948C
:102400003F0C1092FA00CF91DF910895DF93CF93A4
:1024100000D0CDB7DEB784ED91E10E94B307E9812A
:10242000FA8181E08583E981FA8182E19AE79383E9
:102430008283E981FA8111821082E981FA8184E044
:10244000848389819A810E9454070F900F90CF91C5
:10245000DF910895DF93CF9300D000D000D0CDB7A7
:10246000DEB79D838C836E831B821A821BC00E9401
:10247000F00C89839A818E81980F81E0692F0E94E8
:10248000680C8AE20E94500A2A813B818C819D81DE
:10249000FC01E20FF31F898180838A819B81019671
:1024A0009B838A838A819B818530910504F32696DC
:1024B0000FB6F894DEBF0FBECDBFCF91DF91089568
:1024C000DF93CF93CDB7DEB762970FB6F894DEBF38
:1024D0000FBECDBF9A8B898B188A1F8681C02F852E
:1024E000388989899A89FC01E20FF31F80810E9453
:1024F0005C0680E090E0A8E4B2E48B879C87AD871F
:10250000BE876B857C858D859E8520E030E04AEF17
:1025100054E40E941F02DC01CB018F839887A987B6
:10252000BA876F81788589859A8520E030E040E818
:102530005FE30E94790388232CF481E090E09E837E
:102540008D833FC06F81788589859A8520E03FEF34
:102550004FE757E40E94190318164CF56B857C85EC
:102560008D859E8520E030E040E251E40E941F020C
:10257000DC01CB01BC01CD010E944900DC01CB0193
:102580009E838D830FC088EC90E09C838B838B812E
:102590009C810197F1F79C838B838D819E810197AC
:1025A0009E838D838D819E81009769F714C06F8112
:1025B000788589859A850E944900DC01CB019E833C
:1025C0008D838D819E819A83898389819A810197E8
:1025D000F1F79A8389838F8598890196988B8F87E5
:1025E0008F859889853091050CF479CF62960FB666
:1025F000F894DEBF0FBECDBFCF91DF910895DF937A
:10260000CF930F92CDB7DEB703C00E94F00C898341
:1026100089818D33D1F70F90CF91DF910895DF93AA
:10262000CF9300D000D0CDB7DEB79B838A830E94C2
:10263000E60C80E990E00E943F0C8A819B8160E07B
:102640000E942A120E94FF128A819B810E946012BE
:102650000E94730689838981813019F481E08C831B
:1026600001C01C828C810F900F900F900F90CF9122
:10267000DF910895DF93CF9300D000D0CDB7DEB7C0
:102680009A8389837C836B830E94E60C80E990E0C7
:102690000E943F0C89819A8160E00E942A120E9468
:1026A000FF120E94E60C80E060E00E94680C80EA65
:1026B00090E00E943F0C81E060E00E94680C81EB9A
:1026C00090E00E943F0C8B819C816AE00E942A125C
:1026D0000E94FF120F900F900F900F90CF91DF91FB
:1026E0000895DF93CF93CDB7DEB70E94E60C8CEB55
:1026F00090E00E943F0C81E060E00E94680C84EC56
:1027000090E00E943F0C0E9406128091FA008823FC
:10271000E1F7CF91DF910895DF93CF93CDB7DEB787
:1027200064970FB6F894DEBF0FBECDBF10C0CE01C8
:1027300040960E940F138F878F85813019F4109275
:10274000FF0090C08091FF008F5F8093FF00809119
:10275000FF00843060F38091FF00843008F482C071
:1027600080E091E00E9460121092FF000E94E60C4F
:102770008EEC90E00E943F0C80E090E6AAE6B7E481
:102780008B879C87AD87BE876B857C858D859E8575
:1027900020E030E04AEF54E40E941F02DC01CB014C
:1027A0008F839887A987BA876F81788589859A856D
:1027B00020E030E040E85FE30E94790388232CF4B6
:1027C00081E090E09E838D833FC06F81788589850D
:1027D0009A8520E03FEF4FE757E40E94190318164F
:1027E0004CF56B857C858D859E8520E030E040E250
:1027F00051E40E941F02DC01CB01BC01CD010E940B
:102800004900DC01CB019E838D830FC088EC90E0F2
:102810009C838B838B819C810197F1F79C838B83B5
:102820008D819E8101979E838D838D819E810097EE
:1028300069F714C06F81788589859A850E9449005F
:10284000DC01CB019E838D838D819E819A83898358
:1028500089819A810197F1F79A8389830E94E60C16
:102860000E943B1464960FB6F894DEBF0FBECDBF36
:10287000CF91DF910895DF93CF93CDB7DEB7619706
:102880000FB6F894DEBF0FBECDBF84ED90E00E947E
:102890003F0C81E060E00E94680C82EE90E00E94B4
:1028A0003F0C0E94F00C898389818B3211F58BE2F9
:1028B0000E945C06CE0103960E940F138A838A81D0
:1028C000813039F40E9471130E94E60C0E943B147F
:1028D00035C00E948C138BE20E945C0680E091E080
:1028E0000E9460120E9471130E94E60C0E943B1429
:1028F00025C089810E945C06CE0103960E940F13B9
:102900008A838A81813049F4CE0108969E01235F33
:102910003F4FB9010E94A71411C00E948C138DE291
:102920000E945C0680E091E00E946012CE01089651
:102930009E01235F3F4FB9010E94A71461960FB615
:10294000F894DEBF0FBECDBFCF91DF910895DF9326
:10295000CF93CDB7DEB727970FB6F894DEBF0FBE83
:10296000CDBF9D838C837F836E8381E08B838C813D
:102970009D812E813F81B9010E943A130E94E60C8D
:102980008C819D810E9460128E819F810E946012C5
:102990000E9473068B838B818130F1F41A82198235
:1029A00013C049815A8129813A818C819D81FC0122
:1029B000E20FF31F8081FA01E050FF4F808389818D
:1029C0009A8101969A83898389819A8185309105BC
:1029D00044F30E943B1407C08C819D812E813F816E
:1029E000B9010E94A71427960FB6F894DEBF0FBE58
:1029F000CDBFCF91DF910895DF93CF93CDB7DEB7F1
:102A00002C970FB6F894DEBF0FBECDBFAFE5B0E098
:102A1000EFE5F0E0808180688C930E94C507E98132
:102A2000FA8188E08083E981FA8182E08183E9810B
:102A3000FA811282E981FA8180E895E2A0E0B0E0B3
:102A400083839483A583B68389819A810E94A30599
:102A5000CE0103969E01285F3F4FB9010E94A71443
:102A6000F7CFA1E21A2EAA1BBB1BFD010DC0AA1FA6
:102A7000BB1FEE1FFF1FA217B307E407F50720F0E7
:102A8000A21BB30BE40BF50B661F771F881F991F62
:102A90001A9469F760957095809590959B01AC01AB
:102AA000BD01CF0108952F923F924F925F926F9296
:102AB0007F928F929F92AF92BF92CF92DF92EF92CE
:102AC000FF920F931F93CF93DF93CDB7DEB7CA1B4F
:102AD000DB0B0FB6F894DEBF0FBECDBF09942A887A
:102AE000398848885F846E847D848C849B84AA8422
:102AF000B984C884DF80EE80FD800C811B81AA81AF
:102B0000B981CE0FD11D0FB6F894DEBF0FBECDBF79
:102B1000ED010895FB019F01E8944230C4F0453275
:102B2000B4F44A3029F497FB1EF4909581959F4F99
:102B3000642F77270E94BB15805D8A330CF0895D76
:102B40008193CB010097A1F716F45DE251931082B7
:102B5000C9010C94AB15DC01FC01672F719177233F
:102B6000E1F7329704C07C916D9370836291AE1748
:102B7000BF07C8F30895AA1BBB1B51E107C0AA1FDA
:102B8000BB1FA617B70710F0A61BB70B881F991F0E
:102B90005A95A9F780959095BC01CD010895F894B8
:022BA000FFCF65
:102BA200446F6F7220697320556E6C6F636B65643E
:102BB20000446F6F72206973206C6F636B696E677C
:102BC20000446F6F72206973206C6F636B656400E1
:102BD200706C7A20656E74657220706173733A004E
:102BE200706C7A2072652D656E74657220746865EA
:102BF2000073616D6520706173733A00446F6F7288
:102C020020697300556E6C6F636B696E6700455285
:102C1200524F52002B203A204F70656E20446F6F46
:102C220072002D203A204368616E676520506173FF
:0C2C320073000000000000000000010022
:00000001FF
